:2000000019C033C032C031C030C02FC02EC02DC02CC02BC02AC0BFC428C027C026C025C099
:2000200024C023C022C0636E307825782020006D2575000011241FBECFE5D2E0DEBFCDBF19
:2000400010E0A0E6B0E0E2E5FFE102C005900D92AE3BB107D9F711E0AEEBB0E001C01D9202
:20006000A038B107E1F728DB72CFCACF811101C081E0682F70E08CE39FE0EFDB7093620083
:2000800060936100089560E089E091E0E2C0C198B99A4FEF60E089E091E0E4D08CE39FE00D
:2000A000909362008093610008958093BE000895EF92FF920F931F938091CA009091CB000F
:2000C000A091CC00B091CD004091C5005091C6006091C7007091C8008C019D01041B150BED
:2000E000260B370B409161005091620060E070E0041715072607370728F18093C5009093D2
:20010000C600A093C700B093C80080910C0160916000772767FD7095680F711D6F3F710575
:2001200034F08FEF809360006FEF70E008C0161617062CF081E08093600060E070E089E002
:2001400091E087D08091BE00882309F471C0982F9F70282F207F31F0911107C021E0209325
:20016000C40003C091111092C400E091C400EE2321F0382F32953F7001C0392F2091C3001F
:20018000F22FF6958091CA009091CB00A091CC00B091CD004091BF005091C0006091C100FE
:2001A0007091C200F317C8F47C018D01E41AF50A060B170BB801A7014432544F6105710525
:2001C00090F18093BF009093C000A093C100B093C2002F5F2093C30026C08C019D01041BBC
:2001E000150B260B370B40E251EA67E070E00E2E04C0440F551F661F771F0A94D2F7041714
:2002000015072607370778F08093BF009093C000A093C100B093C2001092C30081E0E11189
:2002200080E08093C4008091C3008095817003C089E091E01CD0882321F0B998C19A81E05B
:2002400003C0C198B99A80E01F910F91FF90EF900895FC018281861710F0638308958281B1
:2002600083830895FC01118210824283F2CFFC0180819181181619064CF4808191812281E0
:20028000821B91099183808381E001C080E0208131819381290F311D31832083089560E06D
:2002A00080E0A3D066E080E07BD082B78093C9001092CA001092CB001092CC001092CD00AF
:2002C000089582B79091C900482F50E0491B5109891710F441505F4F8093C900662757FD59
:2002E0006095762F8091CA009091CB00A091CC00B091CD00840F951FA61FB71F8093CA00D3
:200300009093CB00A093CC00B093CD0008958F929F92AF92BF92CF92DF92EF92FF92CF9319
:20032000DF9300D000D0CDB7DEB7C090CA00D090CB00E090CC00F090CD008090CA009090CA
:20034000CB00A090CC00B090CD008C189D08AE08BF0886169706A806B90650F469837A8330
:200360008B839C83AEDF69817A818B819C81E5CF0F900F900F900F90DF91CF91FF90EF90A7
:20038000DF90CF90BF90AF909F908F9008956091CA007091CB008091CC009091CD00089527
:2003A000823008F5663079F030F4662351F06330D1F492E00BC0683041F06A30A1F495E09F
:2003C00005C091E003C093E001C094E0813029F083B7887F892B83BF04C08FB5887F892BB8
:2003E0008FBD80E0089581E008956430D0F4882319F0813049F015C060FD13C0669511F0BF
:20040000A89A0DC0A8980BC0613019F486B5816002C086B58E7F86BD86B58D7F86BD80E0D1
:20042000089581E008950F931F938091DE00823001F128F4882349F0813069F036C0833087
:20044000B1F1843009F46CC030C0D69ADE9A81E08093DE002AC08091DD00803F30F082E0DA
:200460008093DE001092DD0020C08F5F8093DD001CC01092DC001092DB0089DF6093D70045
:200480007093D8008093D9009093DA008091D600882311F084E001C083E08093DE00D6981E
:2004A000DE981092DC001092DB0040E09AC0CE9904C081E08093D60030C08091CA009091F0
:2004C000CB00A091CC00B091CD004091D7005091D8006091D9007091DA008C019D01041BF6
:2004E000150B260B370BB901A801403D17E0510761057105D0F28053984FAF4FBF4F841B37
:20050000950BA60BB70B8093D7009093D800A093D900B093DA001092D6001092DE00C5CF2E
:20052000CE9921C034DF0091D7001091D8002091D9003091DA00601B710B820B930B97FFA2
:2005400004C06FEF7FEF8FEF9FE72091DB003091DC003093D5002093D4001092DE00462FCA
:20056000372F282F41C08091CA009091CB00A091CC00B091CD004091D7005091D800609199
:20058000D9007091DA008C019D01041B150B260B370BB901A8014A3912E0510761057105BE
:2005A000B0F086569D4FAF4FBF4F841B950BA60BB70B8093D7009093D800A093D900B093E1
:2005C000DA001092D6001092DE0041E00AC08091DB009091DC0001969093DC008093DB00F1
:2005E00042E030E020E090E8642F732F822F1F910F9108950F931F9316DF97FD50C0009100
:20060000630010916400209165003091660001151105210540E83407C9F41092CE001092B1
:20062000CF001092D0001092D100609363007093640080936500909366008091D400909142
:20064000D5009093D3008093D20015C0601771078207930784F42091D4003091D5003093AD
:20066000D3002093D200609363007093640080936500909366008091CE009091CF00A09164
:20068000D000B091D1000196A11DB11D8093CE009093CF00A093D000B093D1001CC06130FE
:2006A000710581059048B9F43091630020916400809165009091660040E050E060E070E89B
:2006C00040936300509364006093650070936600632F722F04C060E070E080E090E81F91CD
:2006E0000F9108958091FF008093FA008091F3008093FD001092FC001092FB000895CF9352
:20070000C82F8C2F90E0939549DB882311F0CF5FF8CF8C2FCF910895EF92FF920F931F93AC
:20072000CF93DF93CDB7DEB70DB71EB7262F30E0A9014F5F5F4FEDB7FEB7E41BF50B0FB6AB
:20074000F894FEBF0FBEEDBFADB7BEB71196782FAD017C018E2D871B861738F4F701819155
:200760007F01FA018193AF01F5CFFD01E20FF31F10828C9140E050E099E84617D0F4FD01D6
:20078000E40FF51FE181F0E027E030E087FD8927880F7F01022E02C0F594E7940A94E2F751
:2007A0007E2D7170872B2150310980F74F5F5F4FE4CF0FB6F8941EBF0FBE0DBFDF91CF9133
:2007C0001F910F91FF90EF9008958F929F92AF92BF92CF92DF92EF92FF920F931F93CF93A0
:2007E000DF93082FB62E6DDD10E0E801CD58DE4F8881980123583E4F7901F801EE5EFE4F41
:200800006F01811115C0F90180818823E9F1F6018081F801EB5EFE4F8083F901108281E00A
:200820008883B5DDF801ED5EFE4F6083C0982CC09091CA00F801ED5EFE4F2081392F321B91
:200840003A3110F1965E931B90839FEF980F983078F48F5F8883F801EB5EFE4F808180FF06
:2008600002C0C09A01C0C0988081869580830CC0893021F48AE08883C09A06C08A3011F436
:20088000188202C08F5F888381E0F7018083F601B08298012D5E3E4F59018AE0982E0B5EDA
:2008A0001E4F88248394F70180818823F1F109DD8881811110C0F70180818823A1F3F60102
:2008C0008081F8018083F7011082888260DDF5016083C098E8CF9091CA00F5012081F92FB8
:2008E000F21BFA3100F3965E9F1BF50190839FEF980F983070F48F5F8883F801808180FF43
:2009000002C0C09A01C0C098F801808186958083CACF893019F49882C09AC5CF8A3011F464
:200920001882C1CF8F5F8883BECF88818111BFCFDF91CF911F910F91FF90EF90DF90CF90E2
:20094000BF90AF909F908F9008950F931F93CF93DF93082FEB0110E0FE01E10FF11D608105
:20096000662321F0802F31DF1F5FF6CFDF91CF911F910F9108951F93CF93DF93182FEB0165
:20098000BA01CE0122D8BE01812FDFDF1882DF91CF911F9108951F920F920FB60F92112402
:2009A0002F933F934F938F939F93AF93BF93EF93FF93F89434B145B120910D012F5F809100
:2009C0000F01281708F0281B80910E01281719F180910D0190E0880F991FE0911001F09143
:2009E0001101E80FF91F832F90E0942B9183808320930D0145BD3ABD7894FF91EF91BF91B8
:200A0000AF919F918F914F913F912F910F900FBE0F901F9018958091000190910101A09109
:200A20000201B09103010196A11DB11D8093000190930101A0930201B0930301DDCFDB9A74
:200A400034DB3FDC35DBFDCF4F925F926F927F928F929F92AF92BF92CF92DF92EF92FF92E4
:200A60000F931F93CF93DF9300D000D01F92CDB7DEB7882309F47DC08091CA009091CB0038
:200A8000A091CC00B091CD00409104015091050160910601709107018C019D01041B150B23
:200AA000260B370BB901A801403A55426642710548F08093040190930501A0930601B0933B
:200AC000070110DE1091FB001B5F1093FB008091780190917901A0917A01B0917B018983D2
:200AE0009A83AB83BC832C013D0191E0491A510861087108612F70E080E090E020E136E328
:200B000043E250E0E2D649015A01AFEF8A0EA1E09A1EA11CB11CF9E0B694A7949794879486
:200B2000FA95D1F7480C591C6A1C7B1CC301B20129813A814B815C81A4D68091FC00D22E6C
:200B4000D81A2093FC001F921F938FE290E09F938F938BE491E09F938F933ED76BE471E073
:200B600080E0F3DE0F900F900F900F900F900F9003C0B8DDDD24D394F12C11E0FD1449F171
:200B80000091FD006091FA00E090F900011105C0E61680F461500FEF01C00150802F90E04C
:200BA00093956D83FBD86D81861721F08111EECF81E001C080E00093FD006093FA008823B5
:200BC00031F01093F800802F90E0939501D9F394D5CF0F900F900F900F900F90DF91CF9122
:200BE0001F910F91FF90EF90DF90CF90BF90AF909F908F907F906F905F904F900895CF9312
:200C00008091670090916800181619067CF42091F20021110BC08093140181E08093F200E8
:200C20008FEF9FEF9093680080936700E3DC97FD27C0DC01CB010796A11DB11DC3E0B595AA
:200C4000A79597958795CA95D1F78350853330F4E82FF0E0E757FF4FC08101C0CFE36C2F78
:200C600080E0B3DD60E280E0B0DD81E0C93409F080E0EADE6C2F70E0709368006093670026
:200C8000CF9108958F929F92AF92BF92CF92DF92EF92FF920F931F93CF93DF93D62E622FD2
:200CA00070E0695F7F4F93E0759567959A95E1F7F82EF694F694F694F094F60E9D2D96958D
:200CC00096959695E62EE91AEF18C82EC0948C2D8770C82EE0E0F0E000E010E098016E2D1C
:200CE00070E0EB01C150D04E8E2FEE1568F59F2D9E0FDA01A90FB11D6C9181110CC00C2CFF
:200D000001C0660F0A94EAF770E00C2C02C0759567950A94E2F7862E912CA12CB12CDE015D
:200D2000AE1BBF0B83E0AA0FBB1F8A95E1F704C0880C991CAA1CBB1CAA95D2F7082919290E
:200D40002A293B293196D0CF6D2D67706801790104C0F694E794D794C7946A95D2F7C70103
:200D6000B601DF91CF911F910F91FF90EF90DF90CF90BF90AF909F908F9008958FB980E49B
:200D80008EB98BE1769909C092B722B7291302C00000FBCF8DB90000F5CF80E48EB98FB1E9
:200DA0000895EF92FF920F931F93CF93DF938C01F62EC62FD0E02197C80FD91F88818111E4
:200DC00006C06FEF6F0DC801A7DC81608883E02EC02FD12F8C2F8E198F1518F48991CEDF65
:200DE000F9CFDF91CF911F910F91FF90EF90089580648093DF001092E40066E08FED90E0D2
:200E0000D0CFAF92BF92DF92EF92FF920F931F93CF93DF931F92CDB7DEB75C01D42E10E0DD
:200E20008FEF6983ABDF082F69818F3F19F41F5F6117B0F710E0A114B10421F0F501E10FD4
:200E4000F11D0083FF24F394F10EEE24E394FD1408F0E12C8FEF92DF91E08F3F19F40F3F30
:200E600009F490E090FD02C0EE2019F0082F1F2DE2CF812F0F90DF91CF911F910F91FF906D
:200E8000EF90DF90BF90AF9008951F93CF93DF93182FC0E18FEF72DFD82F8F3F11F4C15011
:200EA000C9F7112329F040E060E080E090E0A9DF8D2FDF91CF911F910895CF93DF93CDB73C
:200EC000DEB727970FB6F894DEBF0FBECDBF66E085E790E066DF80E0D8DF898344E060E08A
:200EE000CE0102968EDF898187FD0FC082FD0DC08A81881F8827881F27960FB6F894DEBFC2
:200F00000FBECDBFDF91CF91089583E098DDCF92DF92EF92FF92CF93DF93D82FCEDFD1D91D
:200F200036DA6B017C01CFEFC7FF26C087E360DF81E0ABDFDD2311F090E401C090E09093F1
:200F4000700066E08FE690E02CDF81E09EDFC82FB8D94091CA005091CB006091CC00709180
:200F6000CD004C195D096E097F09403A554266427105D0F288E863DDC0FDD8CFDF91CF9105
:200F8000FF90EF90DF90CF900895CF93DF9300D000D000D0CDB7DEB726E0E3E8F0E0DE01FB
:200FA000119601900D922A95E1F72091E500211107C029E0660F771F881F991F2A95D1F73A
:200FC0009A838B837C836D8366E0CE010196E9DE81E05BDF26960FB6F894DEBF0FBECDBFE6
:200FE000DF91CF910895CF92DF92EF92FF921F93CF93DF93CDB7DEB728970FB6F894DEBF54
:201000000FBECDBF81E081BBD098D89AD19AD99AD29ADA98D39ADB9A2FEF89EF90E02150EB
:2010200080409040E1F700C0000018EC8FEFA6DE1150E1F7DB9845D9AAD96B017C0180E0EC
:20104000D7DE81E022DF88873CD94091CA005091CB006091CC007091CD004C195D096E0941
:201060007F098885403A55426642710510F087E7E6DC813021F7DB9866E08BE790E091DEA9
:2010800080E003DF898344E060E0CE010296B9DE898187FD0BC082FD06C081E038DF0DDF9E
:2010A0008093E50005C080E032DF02C082E0E0CF66E089E690E075DE81E0E7DE882311F0E5
:2010C00081E0D6CF89E094DE80E0DFDE43E168E086E391E096DE20E847E351E06EE78FE72A
:2010E000D1DD6130D1F420E847E351E060E385E4C9DD6F5F7F4F8F4F9F4F3AE0660F771FAA
:20110000881F991F3A95D1F76093EA007093EB008093EC009093ED0055C06111D1CF20E8D0
:2011200047E351E06EE389E4ADDD6B017C0120E847E351E060E583E5A5DD162F20E847E31A
:2011400051E06FE281E39EDDD701C6010196A11DB11D6E5F04C0880F991FAA1FBB1F6A95EA
:20116000D2F71A3088F0195004C0880F991FAA1FBB1F1A95D2F78093EA009093EB00A0930F
:20118000EC00B093ED001EC08093EA009093EB00A093EC00B093ED001930A1F029E030E008
:2011A000211B310904C0B695A795979587952A95D2F78093EA009093EB00A093EC00B09331
:2011C000ED007ECF28960FB6F894DEBF0FBECDBFDF91CF911F91FF90EF90DF90CF900895D7
:2011E0008FB980E48EB98BE18DB900008DB900008DB900008DB900008DB900008DB90000EC
:201200008DB900008DB900008DB900008DB900008DB900008DB900008DB900008DB900009E
:201220008DB900008DB9000080E48EB98FB10895CF93DF93C0E1D0E08FEFD2DF21972097D7
:20124000D9F788E1D5DD81E020DE8EEFC9DFC0E0D0E08C2FC5DF2196C11581E0D807C9F7E3
:2012600010927C01C0E0D1E0CE0198D5811105C090917C019F5F90937C01B2DF2196C11511
:2012800082E0D80789F780E0ABDF80E0A9DF8FEFA7DF8FEFA5DF8F3F11F00000FACFDF91AD
:2012A000CF9108954F925F926F927F928F929F92AF92BF92CF92DF92EF92FF9268D8809134
:2012C000810090918200813020EF920709F44DC038F5813022E0920709F484C058F4892BCD
:2012E00009F01FC18CEF7CDF80918100909182000196AFC1823022E0920709F48DC08115D6
:20130000904F09F00EC180E0FAD98093F3001092F4001092F5001092F6001092F700FEC0D1
:2013200081302FEF920709F4E1C028F481159F4F09F479C0F6C080372FEF920771F0409676
:2013400009F0EFC08DEF4CDF40E060E080E090E058DD6EDF1092FE00E1C08DEF41DF81E04E
:2013600090EF90938200809381006091F3004090F4005090F5006090F6007090F7006111E9
:2013800016C0411451046104710489F481E090E0A0E0B0E08093F4009093F500A093F6004D
:2013A000B093F700812C912C5401839412C070E080E090E0209178013091790140917A017A
:2013C00050917B0182D249015A01840C951CA61CB71C40E060E080E090E013DDC501B40146
:2013E000D4DD97C080E0FCDE80E0FADE80918100909182000196909382008093810080915D
:20140000F0009091F100009709F427C101979093F1008093F00021C18FEFE2DE8FEFE0DE43
:2014200080E09FEF16C18091F4009091F500A091F600B091F7000196A11DB11D8093F40043
:201440009093F500A093F600B093F700409178015091790160917A0170917B01841795074C
:20146000A607B707E9F51092F4001092F5001092F6001092F700B090F300EB2CF12C8FEFE0
:20148000E81AF80A8E2D3BD98093F300C82ED12C1F928F9386E290E09F938F938BE491E0A1
:2014A0009F938F9399D26BE471E080E04EDA81E00F900F900F900F900F900F90EC14FD0429
:2014C00009F080E08093EF008091F300B81658F08091FF008F3F39F08F5F8093FF0003C0CD
:2014E00081E08093EF0081E09FEFB3C08FEF78DE8F3F09F0B2C08091FE00813019F480EFDE
:201500009FEFA7C08091EF00811103C080E79FEFA0C010928200109281009FC081E090EFA6
:2015200098C08091EE00882319F08130D9F195C090910D0180910E01981701F180910E01C0
:2015400090E0880F991FE0911001F0911101E80FF91F8081918120910E012F5F20930E0185
:2015600020910E0130910F01231728F020910E01231B20930E01A0E0B0E003C080E090E025
:20158000DC018093740190937501A0937601B0937701892B8A2B8B2B09F45FC081E0809339
:2015A000EE005BC0C0907401D0907501E0907601F0907701CD2CDE2CEF2CFF248C2D90918D
:2015C000F200911108C02091F0003091F100232BA9F18C6033C0913011F5A090F300B12CCE
:2015E000B394C501DBD36091FF00861304C08091F800882339F01092F80081E08093FE00FA
:20160000C501D4D38091F2008F5F8093F2009C2D9460809114018295807F892B0FC0923029
:2016200069F41092F20080911401807F88608C292BE931E13093F1002093F000D1DD8091BB
:201640007401CEDD1092EE00809181009091820002969093820080938100FF90EF90DF9057
:20166000CF90BF90AF909F908F907F906F905F904F90089580910801882359F0F89430915B
:201680007E0120917F01109208017894832F922F089580917E0190917F01919581959109CC
:2016A000089586E087B986E186B913B886B1886F86B980E881B90895CF93DF9300D000D056
:2016C000CDB7DEB7E4D480E0D1D4BA98C29AB89AE6D5B89AC09AF5D55AD6C090CA00D09059
:2016E000CB00E090CC00F090CD00C61AD70AE80AF90A28E0C21622E0D206E104F10408F450
:20170000A2C060E970ED83E090E001D66CDCDB9ADB988091EA009091EB00A091EC00B09182
:20172000ED00892F9A2FAB2FBB278093780190937901A0937A01B0937B0181E159DB80E0F3
:20174000A4DB8FEF4DDD8E3F11F00000FACF11E0E12CF12C8FEF44DD90E08E159F0509F061
:2017600010E08FEFE81AF80AE114E1E0FE0691F7C12CDD24D3948FEF33DDF82E682FC6014E
:2017800015D38091FF008F1510F4F092FF00FFEFCF1ADF0AC11422E0D20669F78091FF0049
:2017A000982F92959F70811102C081E00AC0973028F481E0890F8295807F03C08F3F19F021
:2017C0008F5F8093FF008FEF0BDD8FEF09DD11111BC066E480E0F9D700E110E08FEF00DD9C
:2017E0000150110901151105C9F700E011E060E0C801DCD20F5F1F4F011582E01807B9F7E7
:2018000017DD81E08093FF0080E079D78093F30069D78091FF008093F90086E191E0909354
:2018200011018093100180E180930F0110920D0110920E01ACD535DFB99A789442D538D476
:20184000DED930DDFBCF69837A838B839C8339D569817A818B819C8140CFAA1BBB1B51E1EC
:2018600007C0AA1FBB1FA617B70710F0A61BB70B881F991F5A95A9F780959095BC01CD014D
:201880000895A1E21A2EAA1BBB1BFD010DC0AA1FBB1FEE1FFF1FA217B307E407F50720F042
:2018A000A21BB30BE40BF50B661F771F881F991F1A9469F760957095809590959B01AC01B9
:2018C000BD01CF01089568940010E894A0E0B0E0EBE6FCE01DC0EFEFE7F959016A015E23B7
:2018E000550FEE08FE2C87019B01AC019E23990F660B762FCB013BD0CDB7DEB7EAE024C076
:201900002F923F924F925F926F927F928F929F92AF92BF92CF92DF92EF92FF920F931F9335
:20192000CF93DF93CDB7DEB7CA1BDB0B0FB6F894DEBF0FBECDBF09942A88398848885F84E5
:201940006E847D848C849B84AA84B984C884DF80EE80FD800C811B81AA81B981CE0FD11D0B
:201960000FB6F894DEBF0FBECDBFED010895DF93CF939F92A0E49A2E0024D001E001F0017D
:2019800016950795F794E794D794C794B794A79448F41068A20FB31FC41FD51FE61FF71F85
:2019A000081E191E220F331F441F551F661F771F881F991F9A9421F79D01AE01BF01C001E2
:2019C00011249F90CF91DF910895FB01DC0105900D920020E1F70895AEE0B0E0E1EFFCE0CA
:2019E0009DCF0D891E898EE08C831A8309838FEF9FE79E838D83AE01475E5F4F6F89788D64
:201A0000CE01019608D0EF81F885E00FF11F10822E96E4E09FCFACE0B0E0E0E1FDE070CF1B
:201A20007C016B018A01FC0117821682838181FFB0C1CE0101964C01F7019381F60193FDC9
:201A4000859193FF81916F01882309F49EC1853239F493FD859193FF81916F01853221F4EB
:201A6000B70190E0D9D1E8CF512C312C20E02032A0F48B3269F030F4803259F0833269F4D6
:201A800020612CC08D3239F0803339F4216026C02260246023C0286021C027FD27C030ED30
:201AA000380F3A3078F426FF06C0852D6AE046D2582E530E13C0832D6AE040D2382E330E9D
:201AC00020620CC08E3221F426FD5FC1206406C08C3611F4206802C0883641F4F60193FDCB
:201AE000859193FF81916F018111C1CF982F9F7D9554933028F40C5F1F4FFFE3F9830DC0EB
:201B0000833631F0833771F0833509F057C021C0F801808189830E5F1F4F44244394512C8A
:201B2000540114C03801F2E06F0E711CF801A080B18026FF03C0652D70E002C06FEF7FEFC5
:201B4000C5012C875ED12C0183012C852F77222E16C03801F2E06F0E711CF801A080B18050
:201B600026FF03C0652D70E002C06FEF7FEFC5012C873CD12C012C852068222E830123FC2E
:201B800019C0832D90E048165906A0F4B70180E290E042D13A94F5CFF50127FC859127FE78
:201BA00081915F01B70190E037D131103A94F1E04F1A51084114510479F7DEC0843611F06E
:201BC000893631F5F80127FF07C060817181828193810C5F1F4F08C060817181882777FDB9
:201BE0008095982F0E5F1F4F2F76B22E97FF09C090958095709561957F4F8F4F9F4F2068F3
:201C0000B22E2AE030E0A40139D1A82EA81843C0853729F42F7EB22E2AE030E025C0F22FFC
:201C2000F97FBF2E8F36C1F018F4883579F0ADC0803719F0883721F0A8C02F2F2061B22E73
:201C4000B4FE0DC08B2D8460B82E09C024FF0AC09F2F9660B92E06C028E030E005C020E17E
:201C600030E002C020E132E0F801B7FE07C060817181828193810C5F1F4F06C060817181AE
:201C800080E090E00E5F1F4FA401F8D0A82EA818FB2DFF77BF2EB6FE0BC02B2D2E7FA514CE
:201CA00050F4B4FE0AC0B2FC08C02B2D2E7E05C07A2C2B2D03C07A2C01C0752C24FF0DC06C
:201CC000FE01EA0DF11D8081803311F4297E09C022FF06C07394739404C0822F867809F076
:201CE000739423FD12C020FF06C05A2C731418F4530C5718732C731460F4B70180E290E01B
:201D00002C878AD073942C85F6CF731410F4371801C0312C24FF11C0B70180E390E02C870F
:201D20007BD02C8522FF16C021FF03C088E590E002C088E790E0B7010CC0822F867851F0DB
:201D400021FD02C080E201C08BE227FD8DE2B70190E062D0A51430F4B70180E390E05CD092
:201D60005A94F8CFAA94F401EA0DF11D8081B70190E052D0A110F6CF332009F45DCEB70182
:201D800080E290E049D03A94F7CFF7018681978102C08FEF9FEF2C96E2E1CECDE199FECF78
:201DA0009FBB8EBBE09A99278DB30895262FE199FECF9FBB8EBBE09A01970DB2021639F018
:201DC0001CBA2DBB0FB6F894E29AE19A0FBE0895262FE199FECF1CBA9FBB8EBB2DBB0FB6D1
:201DE000F894E29AE19A0FBE01960895FC010590615070400110D8F7809590958E0F9F1FF7
:201E00000895FC016150704001900110D8F7809590958E0F9F1F08950F931F93CF93DF93FC
:201E2000182F092FEB018B8181FD03C08FEF9FEF20C082FF10C04E815F812C813D8142173A
:201E400053077CF4E881F9819F012F5F3F4F39832883108306C0E885F985812F0995892B6C
:201E600029F72E813F812F5F3F4F3F832E83812F902FDF91CF911F910F910895FA01AA274C
:201E8000283061F1203191F1E8946F936E7F6E5F7F4F8F4F9F4FAF4FB1E040D0B4E03ED0B2
:201EA000670F781F891F9A1FA11D680F791F8A1F911DA11D6A0F711D811D911DA11D22D0CF
:201EC00009F468943F91062E000C3019000C000C3019305D3193CEF6CF010895462F4770A1
:201EE000405D4193B3E00FD0C9F7F6CF462F4F70405D4A3318F0495D31FD4052419302D018
:201F0000A9F7EACFB4E0A6959795879577956795BA95C9F700976105710508959B01AC01E1
:201F20000A2E06945795479537952795BA95C9F7620F731F841F951FA01D0895002480FD1B
:201F4000060E660F11F08695D1F7802D0895F894FFCF013C0F00000080FFFF500000020054
:201F6000006900000000007A000000000048000001AA0000F059000002000048483F303F02
:201F80003F3F3F363F3F3F3F58583F43393F313F34343F3F373F333F52523F4C3F3F3F3F3F
:101FA000494949494949493F32323F35353F3F3830
:00000001FF
