:2000000071C08BC08AC089C088C087C086C085C084C083C082C012C480C07FC0B3C17DC0E8
:200020007CC07BC07AC0617564696F5468696E6733342E3120323031332D31312D32302019
:2000400030313A31313A3336003132337A3435363700717765727479607861736466676829
:200060002000090000000000000000000000000000000000006376626E2D3D08003839309B
:20008000205B5D5C0075696F70270A00006A6B6C3B2F00AB006D2C2E2921402324255E26A7
:2000A0002A2842445225752020202000636E3078257820200042616420446174612052652E
:2000C0007370323A20307825780A0D0045464765666700202B2D2E303132333435363738D7
:2000E0003968000011241FBECFE5D2E0DEBFCDBF10E0A0E6B0E0EEE9FFE102C005900D920B
:20010000A038B107D9F711E0A0E8B0E001C01D92AB3AB107E1F73CD840CF72CF682F8823EB
:2001200009F461E08CE990E070E0ECDD7093610060936000089560916000709161008CE907
:2001400090E0CCDD862F0895A8952091E30080916200992787FD9095820F911D8F3F9105E4
:2001600034F08FEF809362008FEF90E00895181619062CF081E08093620080E090E0089531
:20018000809380000895EF92FF920F931F9330918000432F50E0BA01607F70706115710580
:2001A00029F0FA01EF70F070309771F44F7050704115510519F01092830006C06115710535
:2001C00019F021E02093830020918300211132953F7060918400762F7695409185005091A7
:2001E0008600731780F49C01241B350BA90139E0453C530760F190938600809385006F5F61
:200200006093840024C0BC01641B750B7B0100E010E040E25EE460E070E0022E04C0440F40
:20022000551F661F771F0A94D2F74E155F056007710768F41092840090938600809385005F
:2002400010928300222319F481E08093830080918400809581701F910F91FF90EF9008959A
:20026000B998C19A00000000000086B386958170089580EE90E060E064D00895CF93DF932D
:20028000E6D0EB0140918100509182009B01241B350BA90120916000309161002417350798
:2002A00048F470938200609381004EDF682F80EE90E047D080918000882319F0CE0163DFFA
:2002C00003C080EE90E046D0882321F0B998C19A81E003C0C198B99A80E0DF91CF91089562
:2002E000CDDF0895A89588E10FB6F89481BD11BC0FBEC198B99A80EE90E060E04FEF17D0F7
:2003000080E00CDFC0D084B786958695869580FF02C080E203DF04B600FC07C084B786951E
:20032000869580FF02C080E1F9DE14BE0895FC0142838281861710F06383089582818383CC
:200340000895FC018281861710F063830895828183830895FC01808191812381820F911D47
:2003600091838083808191811816190614F080E00895808191812281821B91099183808301
:2003800081E008951F920F920FB60F9211248F939F93AF93BF938091870090918800A09118
:2003A0008900B0918A000196A11DB11D8093870090938800A0938900B0938A00BF91AF9168
:2003C0009F918F910F900FBE0F901F901895AF92BF92CF92DF92EF92FF920F931F93CF933A
:2003E000DF937B018C01EA01F89482B780938B00A0908700B0908800C0908900D0908A00F2
:20040000789404C0209711F0FE010995F89482B780938B008091870090918800A091890059
:20042000B0918A0078948A199B09AC09BD098E159F05A007B10730F3DF91CF911F910F913A
:20044000FF90EF90DF90CF90BF90AF900895F89482B780938B0020918700309188004091E0
:20046000890050918A007894B901CA01089580918B0090E064E670E006DC6091630070E02E
:200480002DDC862F089588E18093630091E09093640083BB80E062E078D080E066E04CD040
:2004A00080E060E041E0A5D00895843010F081E008956F3010F082E008958295807F862B52
:2004C00050E0A42FA295AA0FAA0FA07C9A0164E0220F331F6A95E1F7322F3073440F551F50
:2004E000440F551F4C7060E070E021E0922F906F9823E92FF0E0EF70F0703097A9F09231A3
:2005000051F0983169F0913111F083E0089590B79F739A2B03C090B79F7C932B90BF04C0A1
:2005200097B5937F942B97BD220F6F5F7F4F64307105E1F680E00895823028F5663081F0C9
:20054000673028F4662351F06330E9F405C0683049F06A30C1F408C092E007C091E005C092
:2005600093E003C094E001C095E09770813029F083B7887F892B83BF04C08FB5887F892BD0
:200580008FBD80E0089581E008956430F0F4882319F08130D1F40AC0862F8170B1F462708B
:2005A00011F0A89A01C0A89885B30DC0613019F486B5816002C086B58E7F86BD86B586B575
:2005C0008D7F86BD86B580E0089581E008950F931F93182F062F642FD8DF882311F08061EF
:2005E00005C0812F602FA8DF811180621F910F910895843010F081E00895623010F082E069
:200600000895442311F041E0F8948295807F860F8130A1F0813030F08031E1F0813131F114
:2006200083E00895442319F089B7806102C089B78F7E89BF89B788B7806123C0442319F01F
:2006400089B7886002C089B7877F89BF89B788B7886017C0442319F089B7806402C089B74E
:200660008F7B89BF89B788B780640BC0442319F089B7806202C089B78F7D89BF89B788B793
:20068000806288BF442311F480E00895789480E00895F894882321F0813041F081E0089597
:2006A00089B7826089BF88B7826005C089B7846089BF88B7846088BF789480E0089522B732
:2006C00030919000822F90E0831B9109231708F44896209390009C01442737FD4095542F85
:2006E00080918C0090918D00A0918E00B0918F00820F931FA41FB51F80938C0090938D00F7
:20070000A0938E00B0938F000895893509F18A3528F4883141F0883531F512C0883DA1F021
:20072000893D09F519C08091DD00282F30E0237030702115310511F08B7F11C084600FC099
:200740008091DD0081600BC08091DD008E7F07C08091DD00826003C08091DD008D7F80939D
:20076000DD0080E008958F3410F080E005C0E82FF0E0E75BFF4F84912091DD00222309F45B
:200780004CC0982F91569A3110F48052089530E0237030702115310509F43FC0982F90530C
:2007A0009A3030F4E82FF0E0E859FF4F849108958B3351F18C3370F48D32D1F08E3228F4A4
:2007C000873221F18C3249F523C08E3219F18F3221F522C08C35B1F08D3528F48D3361F09B
:2007E0008B35D9F40BC08D3559F08036B1F402C08FE508958EE708958BE208958BE708953D
:200800008DE708958CE708958AE3089582E208958CE308958EE308958FE3089589B5826063
:2008200089BD80E991E00197F1F701C0000009B400FEFCCF89B5846089BD08951F920F927A
:200840000FB60F9211242F933F934F935F936F938F939F93AF93BF93EF93FF93F89494B1C6
:2008600065B18091E4008F5F2091E600821708F0821B2091E5008217C1F02091E40030E035
:20088000220F331FE091E700F091E800E20FF31F562F40E0292F30E0242B352B31832083FE
:2008A0008093E40065BD9ABD13C08091910090919200A0919300B09194000196A11DB11DE4
:2008C0008093910090939200A0939300B09394007894FF91EF91BF91AF919F918F916F9126
:2008E0005F914F913F912F910F900FBE0F901F90189583E085BD8FEF8BBD90DF8FB5807F14
:2009000081608FBD87B5816087BDBD9A86B58C7F86BD89E087BD15BC1ABC0895AF92BF92E6
:20092000CF92DF92EF92FF920F931F93CF93DF9330E0295F3F4FE3E035952795EA95E1F7E5
:20094000982F9695969596959095920F362F369536953695231B291B80958770E22FF0E054
:20096000319773E0EE0FFF1F7A95E1F7EE24FF24870130E025C0A32FA90FEA01CA0FD11D6C
:20098000A880332361F4082E01C0AA0C0A94EAF7BB24082E02C0B594A7940A94E2F7BB24A7
:2009A000CC24DD240E2E04C0AA0CBB1CCC1CDD1C0A94D2F7EA28FB280C291D293F5F389754
:2009C0003217C8F26770A801970104C056954795379527956A95D2F7B901CA01DF91CF91CC
:2009E0001F910F91FF90EF90DF90CF90BF90AF9008958FB980E48EB99BE108C082B701C06F
:200A0000000022B72817E1F39DB900008EB18074A9F380E48EB98FB10895CF92DF92EF92EA
:200A2000FF920F931F93DF93CF930F92CDB7DEB76C01E42E10E08FEF6983DBDF082F69818F
:200A40008F3F19F41F5F6117B0F710E0C114D10421F0F601E10FF11D0083F12EF3948FEFD7
:200A6000C8DF8F3F21F40F3F11F4FE1418F4082F1F2DECCF812F0F90CF91DF911F910F91CE
:200A8000FF90EF90DF90CF900895FF920F931F93F82E00E08FEFADDF182F8F3F19F40F5F58
:200AA0000031C1F7FF2029F080E090E060E040E0B4DF812F1F910F91FF9008958FB990E46A
:200AC0009EB98BE18DB900008DB900008DB900008DB900008DB900008DB900008DB9000069
:200AE0008DB900008DB900008DB900008DB900008DB900008DB900008DB900008DB90000C6
:200B00008DB900009EB98FB108959091BA00292F2F5F2093BA00243518F093559093BA0007
:200B2000E091BA00F0E0E751FF4F80830895CF93DF93EC01FC01849104C0E7DFFE01219681
:200B400084918823D1F7DF91CF9108951F93CF93DF93EC0110E002C0D8DF1F5FFE01E10F57
:200B6000F11D80818823C1F7DF91CF911F910895C498C3983EDFC49A0895C498C39A39DF46
:200B8000C49A0895DF93CF930F92CDB7DEB780686983EEDF6981862F8064EADF0F90CF91E0
:200BA000DF9108950F931F93CF93DF9380E060E0E9DFC0E0D0E00BC080E0DFDF0F5F1F4F83
:200BC0000A351105C9F72196C830D10519F000E010E0F2CF80E060E0D5DFDF91CF911F910D
:200BE0000F910895BE9ABC9ABB9A88EE93E020E931E0F9013197F1F70197D9F7C498C698E6
:200C000088EE93E020E931E0F9013197F1F70197D9F7C69AC49A81E2ABDF80EEA9DF84E0BA
:200C2000A7DF83E1A5DF80E2A3DF8CE0A1DF81E29FDF86EC9DDF80E29BDFB4DF0895962FD6
:200C4000282F20532A3080F021532A3120F0282F21542A3110F4265F07C0803221F088233C
:200C600011F025E201C024E2822F65E003D8890F90E06BD908950F931F93082F10E0802FC1
:200C8000612FDDDF7ADF1F5F1530C9F780E075DF1F910F9108950F931F93DF93CF930F92C2
:200CA000CDB7DEB71091BA001093DE0000E080E0602F68DF90E01F5F143508F01455E12F81
:200CC000F0E0E751FF4F80819983D5DF99819F5F9E3089F70F5F063051F70F90CF91DF912C
:200CE0001F910F9108951F93182F01C01F5F812F90E080509F4F29D98823C1F7812F1F912C
:200D000008951F93CF93DF931091BA00810F8093BA00843518F084558093BA0000D000D0F1
:200D200000D0EDB7FEB73196C6E7D1E0ADB7BEB71296DC93CE931197738362834483158233
:200D400084D88DB79EB706960FB6F8949EBF0FBE8DBFCE01FBDE1093BA008FEF8093DE00C7
:200D6000DF91CF911F9108951F93182FDB9A80E060E041E03EDC812F03DA80DAFECFCF92F8
:200D8000DF92EF92FF920F931F93DF93CF93CDB7DEB7CDB6DEB6262F30E0A9014F5F5F4F0D
:200DA000ADB7BEB7A41BB50B0FB6F894BEBF0FBEADBFEDB7FEB73196AC0180E090E009C06E
:200DC0008F01080F191FDA017D91AD01D8017C9301968617A8F32E0F3F1FD9011C928081C2
:200DE00090E049E815C087FD8427880F7801022E02C0F594E7940A94E2F75E2D5170852BD5
:200E000021503040BFEF2F3F3B0769F79F5F3196961728F4018110E027E030E0E4CF0FB6A4
:200E2000F894DEBE0FBECDBECF91DF911F910F91FF90EF90DF90CF900895CF92DF92EF9246
:200E4000FF920F931F93CF93DF938C01F62EC62FD0E02197C80FD91F8881882329F461507A
:200E6000C8018DDF81608883E02EC02EE6016E01D12EE60102C08991BCDD6E01CE18CF146C
:200E8000D0F3DF91CF911F910F91FF90EF90DF90CF90089580648093AF001092B4008FEA81
:200EA00090E066E0CADF0895CF93DF93C0E0D0E08FEF04DE2196C031D105D1F788E1EADF3A
:200EC00081E0E3DD8EEFFADDC0E0D0E08C2FF6DD219631E0C030D307C9F71092A701C0E083
:200EE000D1E0CE0132D8882329F49091A7019F5F9093A701E3DD219682E0C030D80789F7E6
:200F000080E0DCDD80E0DADD8FEFD8DD90E09C012F7130702530310511F100D000D000D024
:200F2000EDB7FEB73196C6E7D1E0ADB7BEB71296DC93CE93119725EB30E0338322839583A7
:200F4000848383D72DB73EB72A5F3F4F0FB6F8943EBF0FBE2DBFCE01F9DD01C000008FEF55
:200F6000ADDD8F3FD9F7DF91CF910895DF93CF9300D000D000D0CDB7DEB79B01AC01DE0157
:200F80001196E9E7F0E086E001900D928150E1F7CA01B901F9E0660F771F881F991FFA9574
:200FA000D1F79A838B837C836D83CE01019666E044DF81E06ADD26960FB6F894DEBF0FBE61
:200FC000CDBFCF91DF910895CF92DF92EF92FF921F9381E081BBD098D89AD19AD99AD29AC1
:200FE000DA98D39ADB9A88EC90E020E931E0F9013197F1F70197D9F710E08FEFFADC1F5FCB
:20100000183CD9F7DB9823DA6B017C0180E042DF81E03BDD182F1BDA6C197D098E099F09D3
:20102000613A26E8720721E0820720E0920710F087E79ADE113051F7DB9887E690E066E066
:20104000FCDE80E022DD80E090E060E040E0E5DCFED96B017C011FEF1AC087E31BDF81E0F9
:2010600014DD8DE690E066E0E8DE81E00EDD182FEED96C197D098E099F09613A26E87207CA
:2010800021E0820720E0920710F088E86DDE17FDE4CF10FDE2CF83E790E066E0CEDE81E0C0
:2010A000F4DC882311F081E05FDE89E0F3DE80E0ECDC81E691E068E043E1AFDC8FE76EE71A
:2010C00042E651E020E82ADC662311F081E04CDE89E46EE342E651E020E820DC6B017C0190
:2010E00083E560E542E651E020E818DC162F81E36FE242E651E020E811DCEE24FF240894D5
:20110000C11CD11CE11CF11C70E06E5F7F4F04C0CC0CDD1CEE1CFF1C6A95D2F7C092A70095
:20112000D092A800E092A900F092AA001A3098F0812F90E0099704C0CC0CDD1CEE1CFF1C12
:201140008A95D2F7C092A700D092A800E092A900F092AA0017C01930A9F089E090E0811B2F
:20116000910904C0F694E794D794C7948A95D2F7C092A700D092A800E092A900F092AA0014
:2011800081E0F2DD1F91FF90EF90DF90CF9008952F923F924F925F926F927F928F929F922E
:2011A000AF92BF92CF92DF92EF92FF920F931F93CF93DF9397D880E0B1D7BA98C29AB89A3A
:2011C00082B78093900010928C0010928D0010928E0010928F0060E177E280E090E040E7E4
:2011E00051E0F5D8F1DEDB9AFDDCDB988091A7009091A800A091A900B091AA00892F9A2F9A
:20120000AB2FBB278093A3019093A401A093A501B093A60181E13EDE80E037DC01C000001E
:201220008FEF4CDC8E3FD9F701E0C0E0D0E08FEF45DC90E08C179D0709F000E0219621E053
:20124000C030D207A1F7C0E0D1E08FEF37DC182FCE01612F82D680919500811710F4109368
:201260009500219632E0C030D30779F780919500882311F481E00DC0982F92959F7097308E
:2012800028F4892F8F5F8295807F03C08F3F19F08F5F809395008FEF11DC8FEF0FDC00234F
:2012A000C1F486E432DCC0E0D0E08FEF07DC2196C031D105D1F7C0E0D1E0CE0160E04DD687
:2012C000219642E0C030D407C1F7EEDD81E08093950080E008DD8093A1009091950090930C
:2012E0009A0080939700109298001092990090939B00FFDA81E491E09093E8008093E700C3
:2013000080E18093E6001092E400E4EEF0E0118280E060E040E06DD993D3B99A11E08BE994
:20132000282E81E1382EC1E0D0EF80916500909166005FEF8130950749F49091DE0080914A
:20134000BA00981719F0DB9AA6DCDB98B8D9C0908C00D0908D00E0908E00F0908F00909129
:201360009E01913081F0913028F0209140019A3031F510C086B38470D1F510939E01C0928A
:20138000400110923F0186B38470B1F482E080939E012DC08C2D9C2D921B9A3140F1865E48
:2013A000891B8093400186B3847031F080913F018093A80110933D0110929E0118C08C2D27
:2013C000AC2DA21BAA3198F0865E8A1B8093400186B38695869587958827879520913F01F0
:2013E0002695822B80933F019F5F90939E0180913D01882309F4D6C08091DB00833108F04D
:20140000D1C08091A200882309F0CCC010923D018091A80180933E0128B398B3927090951F
:2014200092702D7F922B98BB70D980933E01882309F4B8C08B3A09F062C08091BB00909166
:20144000BC00A091BD00B091BE00A7019601281B390B4A0B5B0BDA01C901813A35E2930751
:2014600036E2A30730E0B30760F08091950080939A008091A1008093970010929800109205
:201480009900C092BB00D092BC00E092BD00F092BE00609199006B5F609399008090A30185
:2014A0009090A401A090A501B090A601240135010894410851086108710870E080E090E00F
:2014C00020E136E343E250E0F0D361507E4F8F4F9F4F09E096958795779567950A95D1F7F1
:2014E000640D751D861D971DA50194011ED4B0909800422F4B19B42E209398000EC08091AC
:20150000950080939A008091A100809397001092980010929900BB24B39400E02FC08090B3
:20152000970060919A00882049F480919B008617B0F4462E4A9488248A9402C08A94462E47
:20154000882D90E080509F4F00D5682F841539F0882319F4642D81E003C0642DE4CF80E069
:201560008092970060939A00882339F010939C00882D90E080509F4F02D50F5F0B1578F270
:201580001093A200E091DB00AE2FB0E0A154BF4F80913E018C93EF5FE093DB00F0E0E1543A
:2015A000FF4F10828091D7009091D800A091D900B091DA00C816D906EA06FB0648F198B313
:2015C00088B38270809582709D7F892B88BBF8948FEB90E0BBDA1092BF00D701C6018057E2
:2015E0009F42AC4FBF4F8093D7009093D800A093D900B093DA001092DB0010927601789451
:201600001092D3001092D4001092D5001092D6008091D3009091D400A091D500B091D600FA
:201620000196A11DB11D8093D3009093D400A093D500B093D600809165009091660050EF4D
:201640008130950709F448C0A0EF82309A07C0F4B2E081309B0709F484C022E0823092072F
:2016600020F4009709F430C137C132E08230930709F491C040EF8030940709F02DC119C0F3
:201680005FEF8130950709F4F4C0AFEF82309A0730F4BFEF80309B0709F01EC193C02FEFA0
:2016A0008037920799F03FEF803F930709F014C1FCC080E018DB8093A10010929D00109258
:2016C0009E0010929F001092A000F9C08DEFF6D9D0936600C09365006091A1006623F1F464
:2016E00080919D0090919E00A0919F00B091A0000097A105B10591F481E090E0A0E0B0E073
:2017000080939D0090939E00A0939F00B093A000B1E0CB2ED12CE12CF12C1AC070E080E068
:2017200090E02091A3013091A4014091A5015091A601BBD26B017C0180919D0090919E009C
:20174000A0919F00B091A000C80ED91EEA1EFB1E80E090E060E040E060D9C701B60106DC20
:201760009FC080E0ABD980E0A9D98091650090916600019690936600809365008091A300FB
:201780009091A400009709F4D0CD01979093A4008093A300CACD8FEF91D98F71853049F0D1
:2017A0004091DC004F5F4093DC0087E062EA70E0A8DA8FEF83D9A0E0BFEFB0936600A093B6
:2017C0006500B3CD80919D0090919E00A0919F00B091A0000196A11DB11D80939D00909310
:2017E0009E00A0939F00B093A0002091A3013091A4014091A5015091A60182179307A407FE
:20180000B50771F510929D0010929E0010929F001092A000B090A100CB2CDD240894C11C52
:20182000D11C8C2D60DA082F8093A10080E06CEA70E0402F66DA1092A500802F90E0C816E4
:20184000D90611F41093A5008091A100B81650F0809195008F3F31F08F5F8093950002C0AF
:201860001093A50021E03FEF30936600209365005CCD8FEF23D98F3F09F057CD809196007B
:20188000813039F440EF5FEF50936600409365004CCD8091A500882319F480E79FEFB1C07F
:2018A000109266001092650040CD8DEF07D980E090E060E040E0B1D8F7DA10929600D0938B
:2018C0006600C093650031CD8CEFF8D88091650090916600019695C08091A600882321F045
:2018E000813009F022CD3EC09091E4008091E500981729F480E090E0A0E0B0E020C08091B9
:20190000E50090E0880F991FE091E700F091E800E80FF91F408151819091E5009F5F909399
:20192000E5008091E5002091E600821728F09091E500921B9093E500CA01A0E0B0E08093DB
:201940009F019093A001A093A101B093A2010097A105B10509F4E9CC8091A6008F5F80930B
:20196000A600E3CC0091A0018091A200882341F48091A3009091A4000097B9F10C6035C032
:20198000813031F58091A10090E080509F4FDDD290919500891721F480919C00882361F0CD
:2019A00010929C00109396008091A10090E080509F4F60919500D1D28091A2008F5F8093F3
:2019C000A20080913E018295807F082B04600DC0823059F41092A20080913E01807F886021
:2019E000082B3092A4002092A300802F67D880919F0164D81092A6008091650090916600D9
:201A0000029690936600809365008FCC8091DF00882361F0F8943091A9012091AA011092F1
:201A2000DF007894C901292F382F08C08091A9019091AA0122273327281B390BC901089552
:201A400086E087B986E186B913B886B1886F86B980E881B90895ABE0B0E0E0E3FDE08BC1BC
:201A60006C014B017A01FC0117821682838181FD08C02FEF3FEFFAC022E030E0E20EF31EA1
:201A800004C05E010894A11CB11CF6017380F40173FC859173FE81914F01882309F4E3C07B
:201AA000853251F473FC059173FE01914F01053211F010E01AC085E290E029C0002309F4F0
:201AC000D2C083ED90E0602F70E088D1009739F4033211F4106103C00C3661F41068F40126
:201AE00073FC059173FE01914F0117FFE7CF002309F4B9C08CEC90E0602F70E06FD100978B
:201B000049F024E030E0E20EF31E8FE390E0B60170D1BBCF033629F0033771F00335E1F419
:201B20000AC087010E5F1F4FF70180819181B60160D17801AACF1160F7016080718003C096
:201B400090E0B60156D1F30110FD859110FF81913F018823A9F790CF043611F0093629F57D
:201B600017FF08C0F701608171818281938124E030E00AC0F70120813181B901882777FD9F
:201B80008095982F22E030E0E20EF31E1F7E97FF08C090958095709561957F4F8F4F9F4F8C
:201BA0001064A5012AE030E033C00037A9F0013730F40835B1F00F3609F055C006C005379F
:201BC00039F0083709F04FC008C028E030E00CC01F7E2AE030E008C01061146220E130E072
:201BE00003C0146020E132E017FF08C0F701608171818281938144E050E007C0F7016081E7
:201C0000718180E090E042E050E0E40EF51EA5013CD1082F0A19612E772416FF04C08DE22C
:201C200090E0B601E6D064FE13C0FE01E00FF11D8081803369F080E390E0B601DAD062FEF5
:201C400007C0C30180729070885A9F4FB601D1D00150F501E00FF11D808190E0B601C9D0DA
:201C60000023B1F712CFF60126813781C9012B96EEE09DC0002480FD060E660F11F0869566
:201C8000D1F7802D08955527002480FF02C0060E571F660F771F6115710521F09695879578
:201CA000009799F7952F802D0895FF27EE27BB27AA2760FF04C0A20FB31FE41FF51F220F13
:201CC000331F441F551F969587957795679589F70097760771F7CF01BD010895AA1BBB1BCA
:201CE00051E107C0AA1FBB1FA617B70710F0A61BB70B881F991F5A95A9F780959095BC0165
:201D0000CD01089597FB092E07260AD077FD04D0E5DF06D000201AF4709561957F4F089512
:201D2000F6F7909581959F4F0895A1E21A2EAA1BBB1BFD010DC0AA1FBB1FEE1FFF1FA21738
:201D4000B307E407F50720F0A21BB30BE40BF50B661F771F881F991F1A9469F760957095E6
:201D6000809590959B01AC01BD01CF0108952F923F924F925F926F927F928F929F92AF92AC
:201D8000BF92CF92DF92EF92FF920F931F93CF93DF93CDB7DEB7CA1BDB0B0FB6F894DEBF14
:201DA0000FBECDBF09942A88398848885F846E847D848C849B84AA84B984C884DF80EE8061
:201DC000FD800C811B81AA81B981CE0FD11D0FB6F894DEBF0FBECDBFED010895FC010590C9
:201DE000061621F00020D9F7C00108953197CF0108950F931F93CF93DF938C01EB018B8186
:201E000081FF1BC082FF0DC02E813F818C819D812817390764F4E881F9810193F983E8834A
:201E200006C0E885F985802F0995009731F48E819F8101969F838E8302C00FEF1FEFC80158
:201E4000DF91CF911F910F910895AEE0B0E0EAE2FFE09BCF0D891E898EE08C831A830983AF
:201E60008FEF9FE79E838D839E01275E3F4FCE0101966F89788DA901EEDDEF81F885E00FC7
:201E8000F11F10822E96E4E09CCFFA01AA27283061F1203191F1E8946F936E7F6E5F7F4F5E
:201EA0008F4F9F4FAF4FB1E040D0B4E03ED0670F781F891F9A1FA11D680F791F8A1F911D83
:201EC000A11D6A0F711D811D911DA11D22D009F468943F91062E000C3019000C000C30198E
:201EE000305D3193CEF6CF010895462F4770405D4193B3E00FD0C9F7F6CF462F4F70405DFB
:201F00004A3318F0495D31FD4052419302D0A9F7EACFB4E0A6959795879577956795BA9569
:201F2000C9F700976105710508959B01AC010A2E06945795479537952795BA95C9F7620FE6
:201F4000731F841F951FA01D0895E199FECF9FBB8EBBE09A99278DB30895262FE199FECFA1
:201F60009FBB8EBBE09A01970DB2021639F01CBA2DBB0FB6F894E29AE19A0FBE0895262FE7
:201F8000E199FECF1CBA9FBB8EBB2DBB0FB6F894E29AE19A0FBE01960895F894FFCF9C005A
:1E1FA00001640100F048000001AA0069000000000050000002000059000002000000C4
:00000001FF
