:200000007CC096C095C094C093C092C091C090C08FC08EC08DC00DC48BC08AC0BEC188C048
:2000200087C086C085C0617564696F5468696E67323920323031332D30392D3031203035E8
:200040003A34303A3332003132337A3435363700717765727479607861736466676820006C
:20006000090000000000000000000000000000000000006376626E2D3D0800383930205B40
:200080005D5C0075696F70270A00006A6B6C3B2F00AB006D2C2E2921402324255E262A28D0
:2000A000703A307825786C3A307825786C6E3A30782578636E3A307825780A0D006D696E62
:2000C0003A25756368753A257563746D3A2575000A0D0063723A3078257800636E3A307802
:2000E00025780045464765666700202B2D2E30313233343536373839680011241FBECFE57E
:20010000D2E0DEBFCDBF10E0A0E6B0E0ECE8FFE102C005900D92A038B107D9F711E0A0E87B
:20012000B0E001C01D92A835B107E1F7ABD72CCF67CF682F882309F461E08CE990E070E0EA
:20014000D8DD7093610060936000089560916000709161008CE990E0B8DD862F0895A895DA
:200160002091E00080916200992787FD9095820F911D8F3F910534F08FEF809362008FEFDA
:2001800090E00895181619062CF081E08093620080E090E00895809380000895EF92FF9264
:2001A0000F931F9330918000432F50E0BA01607F70706115710529F0FA01EF70F070309708
:2001C00071F44F7050704115510519F01092830006C06115710519F021E0209383002091BE
:2001E0008300211132953F7060918400762F76954091850050918600731780F49C01241B18
:20020000350BA90139E0453C530760F190938600809385006F5F6093840024C0BC01641B09
:20022000750B7B0100E010E040E25EE460E070E0022E04C0440F551F661F771F0A94D2F7C1
:200240004E155F056007710768F410928400909386008093850010928300222319F481E05D
:200260008093830080918400809581701F910F91FF90EF900895B998C19A000000000000A6
:2002800086B38695817008958DED90E060E064D00895CF93DF93E6D0EB01409181005091D8
:2002A00082009B01241B350BA90120916000309161002417350748F4709382006093810018
:2002C0004EDF682F8DED90E047D080918000882319F0CE0163DF03C08DED90E046D0882395
:2002E00021F0B998C19A81E003C0C198B99A80E0DF91CF910895CDDF0895A89588E10FB6F0
:20030000F89481BD11BC0FBEC198B99A8DED90E060E04FEF17D080E00CDFC0D084B786954D
:200320008695869580FF02C080E203DF04B600FC07C084B78695869580FF02C080E1F9DE9B
:2003400014BE0895FC0142838281861710F063830895828183830895FC018281861710F006
:2003600063830895828183830895FC01808191812381820F911D9183808380819181181609
:20038000190614F080E00895808191812281821B91099183808381E008951F920F920FB624
:2003A0000F9211248F939F93AF93BF938091870090918800A0918900B0918A000196A11D64
:2003C000B11D8093870090938800A0938900B0938A00BF91AF919F918F910F900FBE0F9096
:2003E0001F901895AF92BF92CF92DF92EF92FF920F931F93CF93DF937B018C01EA01F89483
:2004000082B780938B00A0908700B0908800C0908900D0908A00789404C0209711F0FE013C
:200420000995F89482B780938B008091870090918800A0918900B0918A0078948A199B09A2
:20044000AC09BD098E159F05A007B10730F3DF91CF911F910F91FF90EF90DF90CF90BF900D
:20046000AF900895F89482B780938B0020918700309188004091890050918A007894B90131
:20048000CA01089580918B0090E064E670E0F2DB6091630070E019DC862F089588E180931A
:2004A000630091E09093640083BB80E062E078D080E066E04CD080E060E041E0A5D0089524
:2004C000843010F081E008956F3010F082E008958295807F862B50E0A42FA295AA0FAA0F59
:2004E000A07C9A0164E0220F331F6A95E1F7322F3073440F551F440F551F4C7060E070E0C9
:2005000021E0922F906F9823E92FF0E0EF70F0703097A9F0923151F0983169F0913111F06F
:2005200083E0089590B79F739A2B03C090B79F7C932B90BF04C097B5937F942B97BD220F05
:200540006F5F7F4F64307105E1F680E00895823028F5663081F0673028F4662351F063303B
:20056000E9F405C0683049F06A30C1F408C092E007C091E005C093E003C094E001C095E0A2
:200580009770813029F083B7887F892B83BF04C08FB5887F892B8FBD80E0089581E0089549
:2005A0006430F0F4882319F08130D1F40AC0862F8170B1F4627011F0A89A01C0A89885B336
:2005C0000DC0613019F486B5816002C086B58E7F86BD86B586B58D7F86BD86B580E008954A
:2005E00081E008950F931F93182F062F642FD8DF882311F0806105C0812F602FA8DF811139
:2006000080621F910F910895843010F081E00895623010F082E00895442311F041E0F894B3
:200620008295807F860F8130A1F0813030F08031E1F0813131F183E00895442319F089B7F6
:20064000806102C089B78F7E89BF89B788B7806123C0442319F089B7886002C089B7877F7F
:2006600089BF89B788B7886017C0442319F089B7806402C089B78F7B89BF89B788B78064A9
:200680000BC0442319F089B7806202C089B78F7D89BF89B788B7806288BF442311F480E033
:2006A0000895789480E00895F894882321F0813041F081E0089589B7826089BF88B78260E1
:2006C00005C089B7846089BF88B7846088BF789480E0089522B730919000822F90E0831B8D
:2006E0009109231708F44896209390009C01442737FD4095542F80918C0090918D00A091F9
:200700008E00B0918F00820F931FA41FB51F80938C0090938D00A0938E00B0938F00089522
:20072000893509F18A3528F4883141F0883531F512C0883DA1F0893D09F519C08091DB00A8
:20074000282F30E0237030702115310511F08B7F11C084600FC08091DB0081600BC080915B
:20076000DB008E7F07C08091DB00826003C08091DB008D7F8093DB0080E008958F3410F093
:2007800080E005C0E82FF0E0E95BFF4F84912091DB00222309F44CC0982F91569A3110F44F
:2007A0008052089530E0237030702115310509F43FC0982F90539A3030F4E82FF0E0EA595D
:2007C000FF4F849108958B3351F18C3370F48D32D1F08E3228F4873221F18C3249F523C0F0
:2007E0008E3219F18F3221F522C08C35B1F08D3528F48D3361F08B35D9F40BC08D3559F0C2
:200800008036B1F402C08FE508958EE708958BE208958BE708958DE708958CE708958AE3F1
:20082000089582E208958CE308958EE308958FE308951F920F920FB60F9211242F933F9370
:200840004F935F936F938F939F93AF93BF93EF93FF93F89494B165B18091E1008F5F20914E
:20086000E300821708F0821B2091E2008217C1F02091E10030E0220F331FE091E400F0918F
:20088000E500E20FF31F562F40E0292F30E0242B352B318320838093E10065BD9ABD13C01D
:2008A0008091960090919700A0919800B09199000196A11DB11D8093960090939700A0937D
:2008C0009800B09399007894FF91EF91BF91AF919F918F916F915F914F913F912F910F90A9
:2008E0000FBE0F901F901895CF92DF92FF920F931F93CF93DF936C0100E05AE0F52E11E00A
:2009000095C0E8DE80914A01882391F4809154018823C9F18091E6008093EB001092540179
:2009200010934A0180918C008093E800C09825C090918C002091E800392F321B3A3118F185
:20094000965E931B9093E800982F9150983080F48F5F80934A018091EB00982F917011F0F5
:20096000C09A01C0C09898B386958093EB000BC0893029F4F0924A01C09A88B304C08A301F
:2009800011F410924A018881109354018093E60042C0A0DE80914A01882391F480915401F9
:2009A0008823C9F18091E6008093EB001092540110934A0180918C008093E800C09825C023
:2009C00090918C002091E800392F321B3A3118F1965E931B9093E800982F9150983080F417
:2009E0008F5F80934A018091EB00982F917011F0C09A01C0C09898B386958093EB000BC044
:200A0000893029F4F0924A01C09A88B304C08A3011F410924A0180915401882309F0B9CF9C
:200A200080914A01882309F0B4CF0F5FE601C00FD11D8881882309F064CFDF91CF911F91C1
:200A40000F91FF90DF90CF9008958FB980E48EB99BE108C082B701C0000022B72817E1F3DF
:200A60009DB900008EB18074A9F380E48EB98FB108958FB990E49EB98BE18DB900008DB9BE
:200A800000008DB900008DB900008DB900008DB900008DB900008DB900008DB900008DB926
:200AA00000008DB900008DB900008DB900008DB900008DB900008DB900009EB98FB108955E
:200AC000CF92DF92EF92FF920F931F93DF93CF930F92CDB7DEB76C01E42E10E08FEF698377
:200AE000B4DF082F69818F3F19F41F5F6117B0F710E0C114D10421F0F601E10FF11D0083A7
:200B0000F12EF3948FEFA1DF8F3F21F40F3F11F4FE1418F4082F1F2DECCF812F0F90CF91F0
:200B2000DF911F910F91FF90EF90DF90CF900895FF920F931F93F82E00E08FEF86DF182F67
:200B40008F3F19F40F5F0031C1F7FF2029F080E090E060E040E0B4DF812F1F910F91FF90D9
:200B6000089589B5826089BD80E991E00197F1F701C0000009B400FEFCCF89B5846089BD69
:200B8000089583E085BD8FEF8BBDEBDF8FB5807F81608FBD87B5816087BDBD9A86B58C7F15
:200BA00086BD89E087BD15BC1ABC0895AF92BF92CF92DF92EF92FF920F931F93CF93DF9363
:200BC00030E0295F3F4FE3E035952795EA95E1F7982F9695969596959095920F362F369511
:200BE00036953695231B291B80958770E22FF0E0319773E0EE0FFF1F7A95E1F7EE24FF249E
:200C0000870130E025C0A32FA90FEA01CA0FD11DA880332361F4082E01C0AA0C0A94EAF71C
:200C2000BB24082E02C0B594A7940A94E2F7BB24CC24DD240E2E04C0AA0CBB1CCC1CDD1CA4
:200C40000A94D2F7EA28FB280C291D293F5F38973217C8F26770A801970104C0569547956A
:200C6000379527956A95D2F7B901CA01DF91CF911F910F91FF90EF90DF90CF90BF90AF9015
:200C80000895CF93DF9300D000D0C2E2D1E0EDB7FEB7D283C18394838383CED80F900F90FB
:200CA0000F900F90CE0120DE10922201DF91CF9108951F93182FDB9A80E060E041E0A4DC48
:200CC000812F69DAE6DAFECFCF92DF92EF92FF920F931F93DF93CF93CDB7DEB7CDB6DEB658
:200CE000262F30E0A9014F5F5F4FADB7BEB7A41BB50B0FB6F894BEBF0FBEADBFEDB7FEB7D1
:200D00003196AC0180E090E009C08F01080F191FDA017D91AD01D8017C9301968617A8F399
:200D20002E0F3F1FD9011C92808190E049E815C087FD8427880F7801022E02C0F594E794E4
:200D40000A94E2F75E2D5170852B21503040BFEF2F3F3B0769F79F5F3196961728F4018171
:200D600010E027E030E0E4CF0FB6F894DEBE0FBECDBECF91DF911F910F91FF90EF90DF90D7
:200D8000CF900895CF92DF92EF92FF920F931F93CF93DF938C01F62EC62FD0E02197C80F66
:200DA000D91F8881882329F46150C8018DDF81608883E02EC02EE6016E01D12EE60102C09E
:200DC000899143DE6E01CE18CF14D0F3DF91CF911F910F91FF90EF90DF90CF900895806460
:200DE0008093B4001092B90084EB90E066E0CADF0895CF93DF93C0E0D0E08FEF3ADE2196F5
:200E0000C031D105D1F788E1EADF81E091DE8EEF30DEC0E0D0E08C2F2CDE219631E0C030E9
:200E2000D307C9F7C0E0D0E0CE0186D822DE219681E0C030D807C1F780E01BDE80E019DE4C
:200E40008FEF17DE8F71853021F08FE032DF01C000008FEF0EDE8F3FD9F7DF91CF910895A3
:200E6000DF93CF9300D000D000D0CDB7DEB79B01AC01DE011196E9E7F0E086E001900D9210
:200E80008150E1F7CA01B901F9E0660F771F881F991FFA95D1F79A838B837C836D83CE01A1
:200EA000019666E06FDF81E043DE26960FB6F894DEBF0FBECDBFCF91DF910895CF92DF9243
:200EC000EF92FF921F9381E081BBD098D89AD19AD99AD29ADA98D39ADB9A88EC90E020E94C
:200EE00031E0F9013197F1F70197D9F710E08FEFACDD1F5F183CD9F7DB98B4DA6B017C014C
:200F000080E06DDF81E014DE182FACDA6C197D098E099F09613A26E8720721E0820720E00F
:200F2000920710F087E7C5DE113051F7DB9885E690E066E027DF80E0FBDD80E090E060E09C
:200F400040E0BEDD8FDA6B017C011FEF1AC087E346DF81E0EDDD8BE690E066E013DF81E068
:200F6000E7DD182F7FDA6C197D098E099F09613A26E8720721E0820720E0920710F088E80E
:200F800098DE17FDE4CF10FDE2CF81E790E066E0F9DE81E0CDDD882311F081E08ADE89E078
:200FA0001EDF80E0C5DD8DE091E068E043E188DD8FE76EE74EE051E020E8F8DD662311F0F2
:200FC00081E077DE89E46EE34EE051E020E8EEDD6B017C0183E560E54EE051E020E8E6DDAB
:200FE000162F81E36FE24EE051E020E8DFDDEE24FF240894C11CD11CE11CF11C70E06E5F12
:201000007F4F04C0CC0CDD1CEE1CFF1C6A95D2F7C0929A00D0929B00E0929C00F0929D006A
:201020001A3098F0812F90E0099704C0CC0CDD1CEE1CFF1C8A95D2F7C0929A00D0929B0093
:20104000E0929C00F0929D0017C01930A9F089E090E0811B910904C0F694E794D794C7940C
:201060008A95D2F7C0929A00D0929B00E0929C00F0929D0081E01DDE1F91FF90EF90DF90E9
:20108000CF9008952F923F924F925F926F927F928F929F92AF92BF92CF92DF92EF92FF9216
:2010A0000F931F93CF93DF9328D980E042D8BA98C29AB89A82B78093900010928C001092E1
:2010C0008D0010928E0010928F00C09A88B360E177E280E090E04BE751E084D9EFDE809185
:2010E0009A0090919B00A0919C00B0919D00892F9A2FAB2FBB278093500190935101A093A6
:201100005201B093530181E16ADE80E011DD01C000008FEFAEDC8E3FD9F701E0C0E0D0E056
:201120008FEFA7DC90E08C179D0709F000E0219621E0C030D207A1F7C0E0D0E08FEF99DCC2
:20114000182FCE01612F00D780919E00811710F410939E00219631E0C030D30779F7809173
:201160009E00882311F481E00DC0982F92959F70973028F4892F8F5F8295807F03C08F3FC6
:2011800019F08F5F80939E008FEF73DC8FEF71DC0023E1F481E08093540186E48093E600EB
:2011A000C0E0D0E08FEF65DC2196C031D105D1F7C0E0D0E0CE0160E0C7D6219641E0C03016
:2011C000D407C1F716DE81E080939E0010E001C01F5F812F90E0B0D68823D1F71093AA00E1
:2011E00080919E008093A3001093A0001092A1001092A2008093A400C4DC8DEE90E090935B
:20120000E5008093E40080E18093E3001092E100E1EEF0E0118280ED90E033DD80E060E059
:2012200040E0F2D90DD4B99A11E0C2E2D1E031E0A32E30EFB32E4EDAC0908C00D0908D0076
:20124000E0908E00F0908F0090914B01913081F0913028F02091EC009A3031F510C086B373
:201260008470D1F510934B01C092EC001092EA0086B38470B1F452E050934B012DC08C2D22
:201280009C2D921B9A3140F1865E891B8093EC0086B3847031F08091EA0080935501109300
:2012A000E70010924B0118C08C2DAC2DA21BAA3198F0865E8A1B8093EC0086B386958695D8
:2012C0008795882787952091EA002695822B8093EA009F5F90934B018091E700882309F41A
:2012E0002AC18091DA00833108F025C18091AF00882309F020C11092E7008091550180933E
:20130000E90028B398B39270909592702D7F922B98BB06DA8093E900882309F40CC18B3AC3
:2013200009F089C08091BA009091BB00A091BC00B091BD00A7019601281B390B4A0B5B0B58
:20134000DA01C901813A35E2930736E2A30730E0B30760F080919E008093A3008091AA0080
:201360008093A0001092A1001092A200C092BA00D092BB00E092BC00F092BD000091A2006A
:201380000B5F0093A20060905001709051018090520190905301130124010894210831080D
:2013A00041085108602F70E080E090E020E136E343E250E071D461507E4F8F4F9F4F29E0D5
:2013C00096958795779567952A95D1F7620D731D841D951DA40193019FD49090A100422F07
:2013E0004919942E2093A1008DB79EB70A970FB6F8949EBF0FBE8DBFEDB7FEB73196ADB7F0
:20140000BEB71296DC93CE9311974DEB50E0538342830483158226831782908611860CD546
:201420008DB79EB70A960FB6F8949EBF0FBE8DBFCE015ADA0EC080919E008093A300809165
:20144000AA008093A0001092A1001092A2009924939400E05BC06090A0006091A300862FF0
:20146000662049F49091A400981798F4282E2A9466246A9402C06A94282E862D90E05CD5A3
:20148000821539F0882319F4622D81E004C0822DE7CF682F80E06092A0006093A3008823F1
:2014A000A1F11093A500862D90E060D5ADB7BEB71C970FB6F894BEBF0FBEADBFEDB7FEB70E
:2014C00031961296DC93CE93119720EA30E0338322838091A000848315828091A3008683A4
:2014E000178280919E00808711868091AA0082871386A2D44DB75EB7445F5F4F0FB6F89478
:201500005EBF0FBE4DBFCE01EFD90F5F091508F4A2CF1093AF00E091DA00AE2FB0E0A25445
:20152000BF4F8091E9008C93EF5FE093DA00F0E0E254FF4F10828091D6009091D700A091F3
:20154000D800B091D900C816D906EA06FB0648F198B388B38270809582709D7F892B88BB20
:20156000F8948EEB90E0C0D91092BE00D701C60180579F42AC4FBF4F8093D6009093D700BA
:20158000A093D800B093D9001092DA001092220178941092D2001092D3001092D4001092D6
:2015A000D5008091D2009091D300A091D400B091D5000196A11DB11D8093D2009093D30066
:2015C000A093D400B093D500809177009091780050EF8130950709F44EC0A0EF82309A0752
:2015E000C0F4B2E081309B0709F4AAC022E08230920720F4009709F469C170C132E08230D7
:20160000930709F4B7C040EF8030940709F066C119C05FEF8130950709F429C1AFEF823077
:201620009A0730F4BFEF80309B0709F057C1AEC02FEF80379207C9F03FEF803F930709F0BF
:201640004DC135C100E001C00F5F802F90E074D48823D1F70093AA001092A6001092A700CF
:201660001092A8001092A9002CC18DEF02DAB0927800A092770000D000D000D0EDB7FEB764
:201680003196ADB7BEB71296DC93CE93119723ED30E0338322838091AA0084831582CCD317
:2016A0004DB75EB74A5F5F4F0FB6F8945EBF0FBE4DBFCE0119D96091AA006623F1F4809198
:2016C000A6009091A700A091A800B091A9000097A105B10591F481E090E0A0E0B0E080936D
:2016E000A6009093A700A093A800B093A900B1E0CB2ED12CE12CF12C1AC070E080E090E008
:2017000020915001309151014091520150915301C3D26B017C018091A6009091A700A0912D
:20172000A800B091A900C80ED91EEA1EFB1E80E090E060E040E0C4D9C701B60191DBB2C0FF
:2017400080E097D980E095D98091770090917800019690937800809377008091B00090912C
:20176000B100009709F467CD01979093B1008093B00061CD8FEF7DD98F71853011F08FE09A
:2017800098DA8FEF76D9A0E0BFEF7CC08091A6009091A700A091A800B091A9000196A11D09
:2017A000B11D8093A6009093A700A093A800B093A9002091500130915101409152015091F7
:2017C000530182179307A407B50709F04BC01092A6001092A7001092A8001092A9009090D1
:2017E000AA00C92CDD240894C11CD11C0C2D01C00F5F602E7724C3019FD38823C9F700931E
:20180000AA0000D000D000D0EDB7FEB73196ADB7BEB71296DC93CE9311972BED30E03383B7
:2018200022830483158208D34DB75EB74A5F5F4F0FB6F8945EBF0FBE4DBFCE0155D81092B5
:20184000B200C614D70411F41093B2008091AA00981650F080919E008F3F31F08F5F80937F
:201860009E0002C01093B20081E09FEFCAC08FEF00D98F3F09F0DFCC80919F00813039F4E3
:20188000A0EFBFEFB0937800A0937700D4CC8091B200882339F420E73FEF30937800209348
:2018A0007700C9CC1092780010927700C4CC8DEFE0D880E090E060E040E002D99ADA109204
:2018C0009F00B0927800A0927700B5CC8CEFD1D88091770090917800019693C08091B30092
:2018E000882321F0813009F0A6CC3EC09091E1008091E200981729F480E090E0A0E0B0E071
:2019000020C08091E20090E0880F991FE091E400F091E500E80FF91F408151819091E200D5
:201920009F5F9093E2008091E2002091E300821728F09091E200921B9093E200CA01A0E06C
:20194000B0E080934C0190934D01A0934E01B0934F010097A105B10509F46DCC8091B30024
:201960008F5F8093B30067CC00914D018091AF00882341F48091B0009091B1000097A9F13D
:201980000C6033C0813011F58091AA0090E0D4D290919E00891721F48091A500882351F04A
:2019A0001092A50010939F008091AA0090E060919E00CAD28091AF008F5F8093AF008091C7
:2019C000E9008295807F082B04600FC0823069F41092AF008091E900807F8860082B4BE9FA
:2019E00051E15093B1004093B000802F42D880914C013FD81092B3008091770090917800EA
:201A00000296909378008093770015CC8091DC00882361F0F89430915601209157011092F0
:201A2000DC007894C901292F382F08C0809156019091570122273327281B390BC9010895FB
:201A400086E087B986E186B913B886B1886F86B980E881B90895ABE0B0E0E0E3FDE082C1C5
:201A60006C014B017A01FC0117821682838181FD08C02FEF3FEFFAC022E030E0E20EF31EA1
:201A800004C05E010894A11CB11CF6017380F40173FC859173FE81914F01882309F4E3C07B
:201AA000853251F473FC059173FE01914F01053211F010E01AC085E290E029C0002309F4F0
:201AC000D2C08AEE90E0602F70E07FD1009739F4033211F4106103C00C3661F41068F40127
:201AE00073FC059173FE01914F0117FFE7CF002309F4B9C083EE90E0602F70E066D100979B
:201B000049F024E030E0E20EF31E8FE390E0B60167D1BBCF033629F0033771F00335E1F422
:201B20000AC087010E5F1F4FF70180819181B60157D17801AACF1160F7016080718003C09F
:201B400090E0B6014DD1F30110FD859110FF81913F018823A9F790CF043611F0093629F586
:201B600017FF08C0F701608171818281938124E030E00AC0F70120813181B901882777FD9F
:201B80008095982F22E030E0E20EF31E1F7E97FF08C090958095709561957F4F8F4F9F4F8C
:201BA0001064A5012AE030E033C00037A9F0013730F40835B1F00F3609F055C006C005379F
:201BC00039F0083709F04FC008C028E030E00CC01F7E2AE030E008C01061146220E130E072
:201BE00003C0146020E132E017FF08C0F701608171818281938144E050E007C0F7016081E7
:201C0000718180E090E042E050E0E40EF51EA50133D1082F0A19612E772416FF04C08DE235
:201C200090E0B601DDD064FE13C0FE01E00FF11D8081803369F080E390E0B601D1D062FE07
:201C400007C0C30180729070885A9F4FB601C8D00150F501E00FF11D808190E0B601C0D0EC
:201C60000023B1F712CFF60126813781C9012B96EEE094C05527002480FF02C0060E571F4A
:201C8000660F771F6115710521F096958795009799F7952F802D0895FF27EE27BB27AA27D2
:201CA00060FF04C0A20FB31FE41FF51F220F331F441F551F969587957795679589F70097A7
:201CC000760771F7CF01BD010895AA1BBB1B51E107C0AA1FBB1FA617B70710F0A61BB70BBF
:201CE000881F991F5A95A9F780959095BC01CD01089597FB092E07260AD077FD04D0E5DFB8
:201D000006D000201AF4709561957F4F0895F6F7909581959F4F0895A1E21A2EAA1BBB1B40
:201D2000FD010DC0AA1FBB1FEE1FFF1FA217B307E407F50720F0A21BB30BE40BF50B661FB1
:201D4000771F881F991F1A9469F760957095809590959B01AC01BD01CF0108952F923F9246
:201D60004F925F926F927F928F929F92AF92BF92CF92DF92EF92FF920F931F93CF93DF938F
:201D8000CDB7DEB7CA1BDB0B0FB6F894DEBF0FBECDBF09942A88398848885F846E847D8462
:201DA0008C849B84AA84B984C884DF80EE80FD800C811B81AA81B981CE0FD11D0FB6F89449
:201DC000DEBF0FBECDBFED010895FC010590061621F00020D9F7C00108953197CF01089540
:201DE0000F931F93CF93DF938C01EB018B8181FF1BC082FF0DC02E813F818C819D812817B4
:201E0000390764F4E881F9810193F983E88306C0E885F985802F0995009731F48E819F81E3
:201E200001969F838E8302C00FEF1FEFC801DF91CF911F910F910895AEE0B0E0E1E2FFE0C4
:201E40009BCF0D891E898EE08C831A8309838FEF9FE79E838D839E01275E3F4FCE010196E8
:201E60006F89788DA901F7DDEF81F885E00FF11F10822E96E4E09CCFFA01AA27283061F100
:201E8000203191F1E8946F936E7F6E5F7F4F8F4F9F4FAF4FB1E040D0B4E03ED0670F781F4F
:201EA000891F9A1FA11D680F791F8A1F911DA11D6A0F711D811D911DA11D22D009F46894E3
:201EC0003F91062E000C3019000C000C3019305D3193CEF6CF010895462F4770405D419329
:201EE000B3E00FD0C9F7F6CF462F4F70405D4A3318F0495D31FD4052419302D0A9F7EACF30
:201F0000B4E0A6959795879577956795BA95C9F700976105710508959B01AC010A2E069468
:201F20005795479537952795BA95C9F7620F731F841F951FA01D0895E199FECF9FBB8EBBA4
:201F4000E09A99278DB30895262FE199FECF9FBB8EBBE09A01970DB2021639F01CBA2DBB5B
:201F60000FB6F894E29AE19A0FBE0895262FE199FECF1CBA9FBB8EBB2DBB0FB6F894E29AE5
:201F8000E19A0FBE01960895F894FFCF9C0001640148000001AA00690000000000500000BD
:0C1FA00002000000F059000002000000E8
:00000001FF
